S0200000346269742D436F756E7465722D5377697463682D436F64652E737265633D
S11300000C942A000C9434000C9434000C943400A6
S11300100C9434000C9434000C9434000C9434008C
S11300200C9434000C9434000C9434000C9434007C
S11300300C9434000C9434000C9434000C9434006C
S11300400C9434000C9434000C9434000C9434005C
S11300500C94340011241FBECFE5D8E0DEBFCDBF21
S11300600E9436000C944B000C9400008FE081BB7E
S11300701ABA80E0C89BFECF8F5F803109F480E01C
S113008082BB2FE936E891E0215030409040E1F7FF
S10D009000C00000EFCFF894FFCF8A
S9030000FC
