S021000041322D42312D50726163746963652D5765656B352D436F64652E7372656302
S11300000C942A000C9434000C9434000C943400A6
S11300100C9434000C9434000C9434000C9434008C
S11300200C9434000C9434000C9434000C9434007C
S11300300C9434000C9434000C9434000C9434006C
S11300400C9434000C9434000C9434000C9434005C
S11300500C94340011241FBECFE5D8E0DEBFCDBF21
S11300600E9436000C948C000C94000083ED84BB39
S11300701ABA80E185BB61E070E050E089B380FD8D
S113008027C06130710521F45F5F503121F402C053
S1130090515001C050E090E1599F90011124422F2A
S11300A0407C9B0122953295307F3227207F322776
S11300B0922F9071252F2370242B292B25BB2FE9F8
S11300C036E891E0215030409040E1F700C0000054
S11300D081FDD4CF21E0622781E05827452F43706A
S11300E080E1589F90011124207CCB018295929548
S11300F0907F9827807F9827982F9071842F822B48
S1130100892B85BB9FE926E831E09150204030409F
S10F0110E1F700C00000B2CFF894FFCF6C
S9030000FC
