:100000000C942A000C9434000C9434000C943400AA
:100010000C9434000C9434000C9434000C94340090
:100020000C9434000C9434000C9434000C94340080
:100030000C9434000C9434000C9434000C94340070
:100040000C9434000C9434000C9434000C94340060
:100050000C94340011241FBECFE5D8E0DEBFCDBF25
:100060000E9436000C944B000C9400008FE081BB82
:1000700080E090E001968031910511F480E090E0FD
:1000800082BB2FE33DE043E0215030404040E1F7A8
:0A00900000C00000EFCFF894FFCF8E
:00000001FF
