:100000000C942A000C9434000C9434000C943400AA
:100010000C9434000C9434000C9434000C94340090
:100020000C9434000C9434000C9434000C94340080
:100030000C9434000C9434000C9434000C94340070
:100040000C9434000C9434000C9434000C94340060
:100050000C94340011241FBECFE5D8E0DEBFCDBF25
:100060000E9472000C9478000C94000080E882BB1F
:100070008FEF88BB26EA2A95F1F700C090E492BB87
:1000800018BA96EA9A95F1F700C090E292BB18BAB6
:1000900026EA2A95F1F700C090E192BB97E298BB5F
:1000A00026EA2A95F1F700C028E022BB98BB96EA21
:1000B0009A95F1F700C094E092BB97E098BB26EACE
:1000C0002A95F1F700C022E022BB98BB96EA9A95E8
:1000D000F1F700C091E092BB88BB26EA2A95F1F7C0
:1000E00000C008958FEF81BB87BB0E943600FDCF13
:0400F000F894FFCFB2
:00000001FF
