S01700004C45442D4D61747269782D436F64652E73726563EE
S11300000C942A000C9441000C943F000C943F0083
S11300100C943F000C943F000C943F000C943F0060
S11300200C943F000C943F000C943F000C943F0050
S11300300C943F000C943F000C943F000C943F0040
S11300400C943F000C943F000C943F000C943F0030
S11300500C943F0011241FBECFE5D8E0DEBFCDBF16
S113006010E0A0E6B0E0ECE3F1E002C005900D92F0
S1130070AA36B107D9F70E9471000C949C000C9425
S113008000001F920F920FB60F9211248F9380914C
S113009060008095809360008F910F900FBE0F9049
S11300A01F901895809161008BBB20E030E02830D0
S11300B03105B4F4F901EE59FF4F808188BB86EA1B
S11300C08A95F1F700C08BB390E0959587958BBB2B
S11300D08BB3811102C080E88BBB2F5F3F4FE7CF0A
S11300E008958FEF8ABB87BB80E48BBF85B783708D
S11300F085BF7894C0E0D0E0C233D10524F40E94D7
S113010052002196F9CF8091600080FFF3CF8FE1F8
S11301109EE40197F1F700C000008091610090E037
S11301209595879580936100809161008111E2CF5C
S10F013080E880936100DECFF894FFCFDC
S10D013C0180FF000027270707FFDA
S9030000FC
